:100000000C946B000C9493000C9493000C9493004C
:100010000C9493000C9493000C946E0B0C9493002E
:100020000C9493000C9493000C9493000C94930004
:100030000C9493000C9493000C9493000C949300F4
:100040000C9499020C9493000C94A2030C947C03DE
:100050000C9493000C9493000C9493000C949300D4
:100060000C9493000C94930025061E0638062F0668
:100070002B06F2051606B805000000002400270034
:100080002A0000000000250028002B0000000000CE
:1000900023002600290004040404040404040202CA
:1000A00002020202030303030303010204081020F7
:1000B0004080010204081020010204081020000002
:1000C0000008000201000003040700000000000017
:1000D0000000D10FC90F11241FBECFEFD8E0DEBF43
:1000E000CDBF12E0A0E0B1E0EAE0FCE202C0059082
:1000F0000D92A43CB107D9F724E0A4ECB2E001C012
:100100001D92A434B207E1F710E0CAE6D0E004C0C3
:100110002197FE010E945411C936D107C9F70E94E8
:10012000EB0C0C94F8150C9400003FB7F8948091F8
:10013000D8029091D902A091DA02B091DB0226B5E3
:10014000A89B05C02F3F19F00196A11DB11D3FBF0F
:10015000BA2FA92F982F8827820F911DA11DB11D9D
:10016000BC01CD0142E0660F771F881F991F4A9599
:10017000D1F70895CF92DF92EF92FF920F931F93E2
:10018000CF93DF936C017A018B01C0E0D0E0CE15F4
:10019000DF0589F0D8016D918D01D601ED91FC91BB
:1001A0000190F081E02DC6010995892B11F47E01A3
:1001B00002C02196ECCFC701DF91CF911F910F9123
:1001C000FF90EF90DF90CF900895089580E090E049
:1001D0000895FC01538D448D252F30E0842F90E04D
:1001E000821B930B541710F0CF9608950197089532
:1001F000FC01918D828D981761F0828DDF01A80F2F
:10020000B11D5D968C91928D9F5F9F73928F90E050
:1002100008958FEF9FEF0895FC01918D828D9817BF
:1002200031F0828DE80FF11D858D90E008958FEFFC
:100230009FEF0895FC01918D228D892F90E0805CC5
:100240009F4F821B91098F73992708958CED92E03F
:100250000E941A0121E0892B09F420E0822F0895E1
:10026000FC01848DDF01A80FB11DA35ABF4F2C9153
:10027000848D90E001968F739927848FA689B78922
:100280002C93A089B1898C9180648C93938D848DFB
:10029000981306C00288F389E02D80818F7D8083CA
:1002A0000895EF92FF920F931F93CF93DF93EC018A
:1002B00081E0888F9B8D8C8D981305C0E889F98922
:1002C000808185FD24C0F62E0B8D10E00F5F1F4F3F
:1002D0000F731127E02E8C8DE8120CC00FB607FCAF
:1002E000FACFE889F989808185FFF5CFCE010E9498
:1002F0003001F1CF8B8DFE01E80FF11DE35AFF4F66
:10030000F0820B8FEA89FB898081806207C0EE89C9
:10031000FF896083E889F98980818064808381E036
:1003200090E0DF91CF911F910F91FF90EF90089592
:10033000CF93DF93EC01888D8823C9F0EA89FB898C
:10034000808185FD05C0A889B9898C9186FD0FC083
:100350000FB607FCF5CF808185FFF2CFA889B98958
:100360008C9185FFEDCFCE010E943001E7CFDF9168
:10037000CF91089580E090E0892B29F00E9426011A
:1003800081110C9400000895CF93DF93EC018881D4
:100390009981009711F00E941D13198218821D8205
:1003A0001C821B821A82DF91CF9108950E947F14D4
:1003B000AF92BF92CF92DF92EF92FF920F931F9373
:1003C000CF93DF93FC01C381D481209751F02C811E
:1003D0003D81AB01420F531FEA81FB81E417F50712
:1003E00008F5FC01E580F6805B016E157F0508F4D9
:1003F00057016B018C01C50106960E948812009777
:10040000B9F0FC01B382A282D183C083F801948346
:100410008383EE0CFF1CF682E582FC01D582C48248
:10042000069606C0C90106965D834C838C0F9D1FFE
:10043000DF91CF911F910F91FF90EF90DF90CF90C0
:10044000BF90AF900895CF93DF9390E0FC01E65505
:10045000FF4F2491FC01EA56FF4F8491882361F1FC
:1004600090E0880F991FFC01E858FF4FC591D49187
:10047000FC01EE57FF4FA591B491611109C09FB7E0
:10048000F8948881209582238883EC912E230BC0D9
:10049000623061F49FB7F8943881822F809583236E
:1004A0008883EC912E2B2C939FBF06C08FB7F894B6
:1004B000E8812E2B28838FBFDF91CF9108958F92F3
:1004C0009F92AF92BF92CF92DF92EF92FF926B0119
:1004D0007C010E9495004B015C01C114D104E10430
:1004E000F104F1F00E949500DC01CB018819990913
:1004F000AA09BB09883E9340A105B10570F321E02C
:10050000C21AD108E108F10888EE880E83E0981E2F
:10051000A11CB11CC114D104E104F10419F7DDCF11
:10052000FF90EF90DF90CF90BF90AF909F908F9013
:1005300008951F920F920FB60F9211242F933F939D
:100540008F939F93AF93BF938091D4029091D502E4
:10055000A091D602B091D7023091D30223E0230FAD
:100560002D3720F40196A11DB11D05C026E8230FEB
:100570000296A11DB11D2093D3028093D4029093C3
:10058000D502A093D602B093D7028091D802909161
:10059000D902A091DA02B091DB020196A11DB11D32
:1005A0008093D8029093D902A093DA02B093DB0231
:1005B000BF91AF919F918F913F912F910F900FBE5F
:1005C0000F901F9018950F931F93CF93DF93EC011B
:1005D00088819981009729F02A813B812617370766
:1005E00088F48B016F5F7F4F0E94B513009761F015
:1005F000998388831B830A832C813D81232B11F4EB
:10060000FC01108281E001C080E0DF91CF911F9159
:100610000F910895EF92FF920F931F93CF93DF9363
:10062000EC017B018A01BA010E94E302811104C03E
:10063000CE010E94C40107C01D830C83B7018881CD
:1006400099810E949614CE01DF91CF911F910F9155
:10065000FF90EF900895CF93DF93EC016115710542
:1006600059F0FB0101900020E9F73197AF01461BDB
:10067000570B0E940A0302C00E94C401CE01DF9101
:10068000CF910895CF93DF93EC01FB018617970775
:1006900061F0608171816115710529F04481558196
:1006A0000E940A0302C00E94C401CE01DF91CF91D3
:1006B0000895FC01808191810C941D13FC0111822D
:1006C000108213821282158214820C944203FC0160
:1006D00011821082138212821582148261157105B3
:1006E00051F0FB0101900020E9F73197AF01461B63
:1006F000570B0C940A0308951F920F920FB60F9296
:1007000011242F933F934F935F936F937F938F9316
:100710009F93AF93BF93EF93FF938CED92E00E9472
:100720003001FF91EF91BF91AF919F918F917F9198
:100730006F915F914F913F912F910F900FBE0F904E
:100740001F9018951F920F920FB60F9211242F939E
:100750008F939F93EF93FF93E091EC02F091ED0262
:100760008081E091F202F091F30282FD12C090814B
:100770008091F5028F5F8F732091F602821751F0FE
:10078000E091F502F0E0E452FD4F958F8093F50281
:1007900001C08081FF91EF919F918F912F910F90D8
:1007A0000FBE0F901F9018958F929F92AF92BF929D
:1007B000CF92DF92EF92FF920F931F93CF93DF932D
:1007C0007C014B01DC01AD90BC90F50100811181F1
:1007D000D8011496CD90DC9015976115710501F143
:1007E000FB0101900020E9F73197E61BF70BC1F000
:1007F000EF01CC0DDD1DBE01C8010E94E30288237C
:1008000079F0F8012081318184819581B401820FD2
:10081000931F0E949614D8011596DC93CE931497DB
:10082000D501ED91FC9124813581F701828193817D
:10083000820F931F8C199D0993838283DF91CF913F
:100840001F910F91FF90EF90DF90CF90BF90AF90EE
:100850009F908F9008950F931F93CF93DF93CDB701
:10086000DEB766970FB6F894DEBF0FBECDBF8C0122
:10087000CB011E8AFE0176962AE030E0B9010E9483
:100880001E1190E3980F9293CB010097B9F7BF0127
:10089000C8010E94D40366960FB6F894DEBF0FBE5F
:1008A000CDBFDF91CF911F910F9108958F929F92AD
:1008B000AF92BF92EF92FF920F931F93CF93DF936C
:1008C000CDB7DEB766970FB6F894DEBF0FBECDBFCB
:1008D0007C011E8A8E010A5E1F4F8AE0882E912CB1
:1008E000A12CB12CCB01BA01A50194010E943211B7
:1008F000942F852F605DF80162938F01A901692F04
:10090000782F411551056105710561F7BF01C701D8
:100910000E94D40366960FB6F894DEBF0FBECDBF1B
:10092000DF91CF911F910F91FF90EF90BF90AF900B
:100930009F908F900895CF93DF93EC0188819981E8
:10094000009789F0DC01ED91FC910190F081E02DA0
:100950006AE070E00995009741F0FC011182108275
:100960001582148202C080E090E0EA81FB8130971A
:1009700051F0208131812115310511F0F901F9CFB4
:100980009183808302C09B838A83DF91CF910895F6
:10099000CF92DF92EF92FF920F931F93CF93DF934B
:1009A00000D0CDB7DEB76C01DC01ED91FC91008188
:1009B000118169831A82F801E480F580FFEFEF1A54
:1009C000FF0AB701C8010E94E302882391F0D80111
:1009D0002D913C91119714968D919C911597BE0184
:1009E0006F5F7F4F820F931F0E949614F801F5826C
:1009F000E482D60112968D919C91139701961396DD
:100A00009C938E9312970F900F90DF91CF911F912F
:100A10000F91FF90EF90DF90CF900895FF920F938A
:100A20001F93CF93DF936115710549F460EF71E077
:100A3000DF91CF911F910F91FF900C94D4038B0104
:100A4000EC0162E2CE010E94C804F80161918F01BD
:100A5000662351F0E1EEF1E0F080FF2099F39181FF
:100A6000961759F03296F8CF62E2CE01DF91CF911E
:100A70001F910F91FF900C94C8046CE5CE010E9469
:100A8000C8046F2DDFCF0F931F93CF93DF938B019C
:100A9000FC01C281D381209759F06A817B81C80112
:100AA0000E948D14892B21F00990D881C02DF3CF9D
:100AB000CE01DF91CF911F910F9108950F931F9356
:100AC000CF93DF938C01EB016BE7CE010E94C8044A
:100AD000F8010281138101151105A9F0F801628165
:100AE0007381CE010E940E056AE3CE010E94C80404
:100AF000BE01C80104960E949005F8010081118191
:100B00000115110541F46DE7CE01DF91CF911F91E1
:100B10000F910C94C8046CE2CE010E94C804DBCF94
:100B20002F923F924F925F926F927F928F929F92FD
:100B3000AF92BF92CF92DF92EF92FF920F931F93EB
:100B4000CF93DF93CDB7DEB766970FB6F894DEBFCD
:100B50000FBECDBFDC01ED91FC913197E830F1057E
:100B600008F004C21B018C01EC5CFF4F0C94541183
:100B7000FC01C280D380E480F580A7019601C70103
:100B8000B6010E949D14882319F060E072E07EC0D7
:100B900020E030E0A901C701B6010E949D1487FF43
:100BA00008C06DE2C1010E94C804F7FAF094F7F89A
:100BB000F09420E030E0A901C701B6010E949D1425
:100BC000882309F467C0A7019601C701B6010E94F6
:100BD0006F11A70196010E949D1481115BC067E00F
:100BE00072E054C0FC01028113816BE5C1010E94D7
:100BF000C804D80112960D911C9113970115110587
:100C000059F0B101C80102960E949005F8010081D7
:100C100011810115110529F46DE5C1010E94C80477
:100C2000A5C16CE2C1010E94C804E8CFDC011296A4
:100C30008D919C9113970E945E0598C1FC01628181
:100C40007381C1010E940E0591C1DC0112966D9164
:100C50007C9113971BC06DE2C1010E94C804F8018A
:100C60004281538164817581C1010E9456047EC115
:100C7000FC0182819381A481B581892B8A2B8B2BE6
:100C800019F46AEF71E002C065EF71E0C1010E94E2
:100C9000D4036CC120E836E948E15BE4C701B60142
:100CA0000E94831287FD5BC1A12CB12C00E210E0F1
:100CB0001A8A198AF501EE5AFE4F24893589468928
:100CC0005789C701B6010E94831287FD13C0F50141
:100CD000E65CFE4F2489358946895789C701B601EC
:100CE0000E9403156B017C0189899A89800F911FED
:100CF0009A8B898B1595079594E0A91AB108A8EEEF
:100D0000AA16AFEFBA06B1F699249A9420E030E023
:100D1000A901C701B6010E9483121816B4F52CEA86
:100D200035EC47E257E3C701B6010E949D1418163F
:100D300064F19FEF991649F1B92DE4E0BE0250012C
:100D40001124F501EE5DFE4F2081318142815381F6
:100D5000C701B6010E949D1487FF13C0F501EE5A2A
:100D6000FE4F2081318142815381C701B6010E942B
:100D700003156B017C0189899A89801B910B9A8BE1
:100D8000898B159507959A94D4CFC701B6010E9417
:100D900054124B015C012B013C0106E080E492E41B
:100DA000AFE0B0E08B8B9C8BAD8BBE8B102F0FEF29
:100DB000010F9AE04916510461047104C8F06B896F
:100DC0007C898D899E892AE030E040E050E00E94D5
:100DD00032112B8B3C8B4D8B5E8BC301B2012AE011
:100DE00030E040E050E00E94321129013A01DECFAC
:100DF000C501B4010E94A2149B01AC01C701B60158
:100E00000E946E116B017C016B897C898D899E89A2
:100E10000E94A2149B01AC01C701B6010E940315F8
:100E20002B013C010E9454126B017C010E94A21410
:100E30009B01AC01C301B2010E946E119B01AC0188
:100E40000E946F110E945412C60ED71EE81EF91E92
:100E50008B899C89AD89BE89C816D906EA06FB062E
:100E6000F8F09FEF891A990AA90AB90AA989BA89DB
:100E7000AB2B99F0BAE08B169104A104B10468F091
:100E8000E989FA893196FA8BE98BC12CD12C76014C
:100E9000812C912C5401839403C0C12CD12C760158
:100EA0002AE0422E512C612C712CC701B601A301FE
:100EB00092010E943211672B682B692BA1F0012F40
:100EC000B501A401C1010E945604112359F1188AE9
:100ED0004E01F0E18F0E911C54019AE0492E512CE5
:100EE000612C712C06C0111654F769017A0111505A
:100EF000DCCF015068F0C701B601A30192010E9446
:100F00003211605DD4016E934D0169017A01F1CF18
:100F1000B501611B71098EE2FB018293BF01C10122
:100F20000E94D40389899A8997FF0BC064E072E01C
:100F3000C1010E94D40369897A897195619571090B
:100F40000AC0A989BA89AB2B89F065E6C1010E9464
:100F5000C80469897A89C1010E942B0407C000E294
:100F600010E085E0982E1A8A198AD0CE66960FB6C0
:100F7000F894DEBF0FBECDBFDF91CF911F910F91CF
:100F8000FF90EF90DF90CF90BF90AF909F908F90A9
:100F90007F906F905F904F903F902F900895EF92C9
:100FA000FF920F931F93CF93DF938C01EB017A0194
:100FB0000E944305FC01892B41F4C8010E949B0457
:100FC000FC01892B51F0D383C28382E090E09583AA
:100FD0008483F782E68281E001C080E0DF91CF91D7
:100FE0001F910F91FF90EF900895EF92FF920F9352
:100FF0001F93CF93DF938C01EB017A010E9443058D
:10100000FC01892B41F4C8010E949B04FC01892B3F
:10101000F9F0D383C283D7014D915C9157FD07C08E
:10102000052E000C660B770B84E090E009C051950B
:1010300041955109052E000C660B770B85E090E079
:1010400095838483468357836087718781E001C0DD
:1010500080E0DF91CF911F910F91FF90EF90089565
:101060002F923F924F925F926F927F928F929F92B8
:10107000AF92BF92CF92DF92EF92FF920F931F93A6
:10108000CF93DF93EC013C0189E0680E711C6FEE99
:1010900071E0C3010E9467034E018FE0880E911C2E
:1010A0006FEE71E0C4010E9467035E0185E1A80E46
:1010B000B11C6FEE71E0C5010E9467036E018BE108
:1010C000C80ED11C6FEE71E0C6010E9467037E015D
:1010D00081E2E80EF11C6FEE71E0C7010E94670328
:1010E0008E01095D1F4F6FEE71E0C8010E9467031A
:1010F0002E018DE2480E511C6FEE71E0C2010E947C
:1011000067031E0183E3280E311C6FEE71E0C101FD
:101110000E9467038FEF9FE79A83898381ED91E0B7
:101120009E838D8360E172E0C3010E942B0380E9FE
:101130009FE198878F8366E372E0C4010E942B03CE
:1011400065E472E0C5010E942B0362E672E0C6010D
:101150000E942B0363E772E0C7010E942B036BE838
:1011600072E0C8010E942B036FE972E0C2010E9485
:101170002B0361EB72E0C101DF91CF911F910F91C1
:10118000FF90EF90DF90CF90BF90AF909F908F90A7
:101190007F906F905F904F903F902F900C942B0317
:1011A0000F931F93CF93DF938C01EB010E943008C4
:1011B00089819A81F801928381838B819C819483B8
:1011C00083838D819E81968385838F819885908787
:1011D0008783BE01675F7F4FC80109960E94420363
:1011E000BE01615F7F4FC8010F960E944203BE019E
:1011F0006B5E7F4FC80145960E944203BE01655E4B
:101200007F4FC8014B960E944203BE016F5D7F4F26
:10121000C80181960E944203BE01695D7F4FC801EB
:1012200087960E944203BE01635D7F4FC8018D9681
:101230000E944203BE016D5C7F4FC801C396DF91DF
:10124000CF911F910F910C944203CF93DF93EC0148
:10125000C2960E945903CE018C960E945903CE017A
:1012600086960E945903CE0180960E945903CE01B2
:101270004A960E945903CE0144960E945903CE011A
:101280000E960E945903CE010896DF91CF910C94DF
:101290005903CF92DF92EF92FF92FC016A017B012A
:1012A0008085918581309105C9F08230910579F072
:1012B000892B19F566897789808D918D9B01AC0109
:1012C0000E9403152BED3FE049E450E40FC0668512
:1012D0007785808991899B01AC0108C0228533857F
:1012E0004485558566857785808991890E94031597
:1012F000A70196010E94031503C060E070E0CB01D6
:10130000FF90EF90DF90CF9008958F929F92AF92D1
:10131000BF92CF92DF92EF92FF920F931F93CF93E2
:10132000DF93CDB7DEB7AC970FB6F894DEBF0FBE34
:10133000CDBF4C015A016901CE0101967C0188E2C2
:10134000D7011D928A95E9F7D401ED91FC910084B3
:10135000F185E02DA701C4010995009709F053C05C
:101360001CA61BA61AA619A6D401ED91FC91028415
:10137000F385E02D9E01275D3F4FAE01455D5F4F38
:10138000B701C40109950097F1F50115110539F070
:1013900088E2F701D80101900D928A95E1F7A11436
:1013A000B10481F08CA5682F782F770F770B072E6B
:1013B000000C880B990B0E94A414F50160837183C3
:1013C00082839383C114D10489F08AA5682F782F72
:1013D000770F770B072E000C880B990B0E94A41433
:1013E000D6016D937D938D939C9313978BA59CA5AC
:1013F000009739F429A53AA5232B29F48AE690E031
:1014000002C080E090E0AC960FB6F894DEBF0FBE4D
:10141000CDBFDF91CF911F910F91FF90EF90DF90A3
:10142000CF90BF90AF909F908F9008958F929F9292
:10143000AF92BF92CF92DF92EF92FF920F931F93E2
:10144000CF93DF93EC018B015A016901E881F981A7
:101450000680F781E02D0995982EE881F981B80181
:10146000685F7F4F0680F781E02DCE010995F82E49
:10147000E881F981B801605F7F4F0680F781E02D38
:10148000CE010995882EE881F981B801685E7F4F09
:101490000680F781E02DCE010995E82EE881F981DB
:1014A000B801605E7F4F0680F781E02DCE0109957F
:1014B0009F2D990D980D9E0D891310C02E2D30E093
:1014C0003829F501318320834F2D50E0CA01992935
:1014D000F6019183808380E090E002C089E690E08D
:1014E000DF91CF911F910F91FF90EF90DF90CF9000
:1014F000BF90AF909F908F90089540E050E080E0C3
:10150000A7E0B0E0FB012191BF01FD01E41BF50B59
:1015100001C0220FEA95EAF7820F4F5F5F4F483014
:10152000510581F70895CF92DF92EF92FF920F93CA
:101530001F93CF93DF93CDB7DEB728970FB6F894FC
:10154000DEBF0FBECDBF6A0179011D821E821F82E0
:10155000188619821A821B821C82DC01ED91FC9193
:101560000280F381E02D9E012F5F3F4FAE014B5F64
:101570005F4F09958C01892BB1F4C114D10441F05E
:101580006D817E818F8198850E944D12F601608366
:10159000E114F10441F069817A818B819C810E9480
:1015A0004D12D7016C93C80128960FB6F894DEBF90
:1015B0000FBECDBFDF91CF911F910F91FF90EF90A4
:1015C000DF90CF900895833081F028F4813099F036
:1015D0008230A1F008958730A9F08830B9F08430C6
:1015E000D1F4809180008F7D03C0809180008F773F
:1015F00080938000089584B58F7702C084B58F7D75
:1016000084BD08958091B0008F7703C08091B000B1
:101610008F7D8093B0000895CF93DF93282F30E023
:10162000F901E254FF4F8491F901E655FF4FD4913F
:10163000F901EA56FF4FC491CC2391F081110E9429
:10164000E30AEC2FF0E0EE0FFF1FE457FF4FA591E8
:10165000B491EC91ED2381E090E021F480E002C0B0
:1016600080E090E0DF91CF910895AF92BF92DF923A
:10167000EF92FF920F931F93CF93DF93D62ECA0161
:101680006AE070E00E941E11EB01181619060CF4B6
:10169000219600E010E083E2A82EB12CE22EF12C7E
:1016A0000C171D0764F4F5013197F1F78D2D0E9499
:1016B0000C0B8E159F0531F40F5F1F4FF1CF8FEF8D
:1016C0009FEF02C080E090E0DF91CF911F910F91DA
:1016D000FF90EF90DF90BF90AF9008951F920F9210
:1016E0000FB60F9211248F930FB6F894A89580919E
:1016F0006000886180936000109260000FBE8F913F
:101700000F900FBE0F901F9018954115510529F4A9
:10171000EAE7F0E080818F7780836A307105A9F075
:1017200063FD02C088E001C088E26770682B88E131
:101730000FB6F894A895809360000FBE6093600088
:10174000E0E6F0E0808180648083232BA1F483B7FE
:10175000817F846083BFF89483B7816083BF85B73E
:10176000806685BF8F7D85BF7894889583B78E7F8F
:1017700083BF78940EC083B7817F846083BFF89461
:1017800083B7816083BF7894889583B78E7F83BF4A
:101790007894452B29F4EAE7F0E080818068808323
:1017A00008951F93CF93DF93282F30E0F901E2547F
:1017B000FF4F8491F901E655FF4FD491F901EA56A4
:1017C000FF4FC491CC23C9F0162F81110E94E30A68
:1017D000EC2FF0E0EE0FFF1FEE57FF4FA591B491F5
:1017E0008FB7F894111105C09C91ED2FE095E92376
:1017F00002C0EC91ED2BEC938FBFDF91CF911F9145
:1018000008958F929F92AF92BF92CF92DF92EF9204
:10181000FF920F931F93CF93DF938C01EB017A011B
:1018200088E2DA011D928A95E9F761E08C2F0E9427
:10183000230260E08C2F0E94D10B64E170E080E015
:1018400090E00E945F0261E08C2F0E94D10B60E06B
:101850008C2F0E94230283E790E00197F1F7D801D3
:10186000ED91FC910480F581E02D20E040E550E011
:10187000BE01C8010995892BB9F5D801ED91FC91FC
:101880000480F581E02D21E040E550E0BE01C80173
:101890000995892B61F55701B8E2AB0EB11C83E2C3
:1018A000882E912CD801ED91FC910480F581E02DDA
:1018B00020E042E350E0BE01C8010995892BD1F434
:1018C000C12CD12C8C2F0E940C0B0197B1F4C401B8
:1018D0000197F1F7BFEFCB1ADB0AE8E0CE16D1048F
:1018E00089F787E690E025C084E690E022C085E68F
:1018F00090E01FC086E690E01CC081E0B4E0CB160B
:10190000D1040CF480E0F70181937F01EA15FB0517
:1019100049F6D801ED91FC910480F581E02D20E09D
:1019200042E350E0BE01C8010995009711F088E636
:1019300090E0DF91CF911F910F91FF90EF90DF909A
:10194000CF90BF90AF909F908F900895CF92DF92ED
:10195000EF92FF920F931F93E82FF92F05C00150CC
:1019600011092109310961F1908196239417B9F386
:1019700005C0015011092109310911F19081962307
:101980009413F7CFC12CD12CE12CF12C0AC08FEF8E
:10199000C81AD80AE80AF80A0C151D052E053F05D5
:1019A00079F080818623841791F36C2D7D2D8E2D07
:1019B0009F2D1F910F91FF90EF90DF90CF90089592
:1019C00060E070E080E090E01F910F91FF90EF9059
:1019D000DF90CF900895CF93DF93CDB7DEB7A79771
:1019E0000FB6F894DEBF0FBECDBF789484B5826089
:1019F00084BD84B5816084BD85B5826085BD85B5B3
:101A0000816085BD80916E00816080936E00109230
:101A100081008091810082608093810080918100AB
:101A2000816080938100809180008160809380003C
:101A30008091B10084608093B1008091B00081609A
:101A40008093B00080917A00846080937A008091C6
:101A50007A00826080937A0080917A00816080931E
:101A60007A0080917A00806880937A001092C10099
:101A700061E084E00E94230261E089E00E94230289
:101A800061E089E00E94D10B5E012FE0A20EB11C43
:101A90006E0136E1C30ED11C8091D1029091D20229
:101AA0009C012D7F232B09F045C21092D202109287
:101AB000D10260E089E00E94D10B62E370E080E037
:101AC00090E00E945F0261E089E00E94D10BE0910A
:101AD000EC02F091ED0282E08083E091E802F09167
:101AE000E9021082E091EA02F091EB028FEC808330
:101AF0001092F402E091F002F091F10286E080830E
:101B0000E091EE02F091EF02808180618083E091AC
:101B1000EE02F091EF02808188608083E091EE0216
:101B2000F091EF02808180688083E091EE02F09175
:101B3000EF0280818F7D808361E084E00E94D10B81
:101B40001E8A1F8668EB7BE080E090E00E945F02C7
:101B50006091A1037091A20300E010E09501A6013D
:101B600080E091E00E94930A4C018E89E82FF0E01A
:101B7000FFA3EEA32F84312C62E370E080E090E0BD
:101B80000E945F02809185038E3008F08E5087702E
:101B9000806480937C0080917A00806480937A00D6
:101BA00080917A0086FDFCCFE090780080917900EA
:101BB000F12CF82A62E370E080E090E00E945F027E
:101BC00060E0809179030E94D10B83E090E001975F
:101BD000F1F761E0809179030E94D10B83E290E0FC
:101BE0000197F1F760E0809179030E94D10B809119
:101BF0007B0390917C039927FC01E655FF4F64918C
:101C0000FC01EA56FF4FE491F0E0EE0FFF1FE457AE
:101C1000FF4F8591949100E412E42FE030E0462FCD
:101C20000E94A60C611571058105910549F0DC0142
:101C3000CB010196A11DB11DBC01CD019F7003C058
:101C400060E070E0CB010E94A4142DEC3CEC48E66F
:101C500052E40E94DB110E944D122B013C01DC0179
:101C6000CB010197A109B109873C9105A105B105F7
:101C700020F044244A94542C320162E370E080E066
:101C800090E00E945F02C301B2010E94A4142B01E4
:101C90003C0120E030E040E050E40E949D14181622
:101CA0004CF04091990350919A0360919B0370917D
:101CB0009C030EC0A30192016091990370919A0355
:101CC00080919B0390919C030E946E11AB01BC011B
:101CD00087E893E00E9449092091870330918803A7
:101CE0004091890350918A030E94DB1120E030E08B
:101CF00048EC52E40E9403152B013C0120E030E047
:101D000048EC52E40E948312181664F020E030E0A0
:101D1000A901B201C3010E949D1487FD08C0362DA0
:101D2000272D09C0412C512C38EC22E404C0412C51
:101D3000512C30E82FEBB201832F922F0E944D12CD
:101D40006AA37BA38CA39DA32AA13BA1B901330F56
:101D5000880B990B0E94A4142B013C019B01AC0140
:101D600060918B0370918C0380918D0390918E0311
:101D70000E94831287FF0AC020E030E040E85FEB5A
:101D8000C301B2010E949D148111E6C08EA19FA1E2
:101D90009A8389833C822B829E828D82F886EF8291
:101DA000EAA1FBA1FA87E98782E891E09C878B870B
:101DB00084E891E09E878D876FEE71E0C6010E94F6
:101DC000670380E291E0988B8F871B8A1A8A84E6EA
:101DD00090E09D8B8C8B64E070E0C5010E94D8017F
:101DE000009739F0FC01B182A082138212828C012B
:101DF00011C08091C80281110BC01092C5021092CF
:101E0000C4021092C7021092C60281E08093C802F9
:101E100004EC12E0AE01495F5F4F66E871E0C80173
:101E20000E94F507AE01475F5F4F63E971E0C801AB
:101E30000E94F5074D855E856EE971E0C8010E943C
:101E4000CF07AE014D5F5F4F6DEA71E0C8010E94A0
:101E5000F507AE014F5F5F4F66EB71E0C8010E946E
:101E6000F5074B855C8562EC71E0C8010E94CF07E5
:101E7000AE014B5F5F4F62ED71E0C8010E94F50754
:101E8000D9A2C8A220E230E02C0F3D1F3D8F2C8F3D
:101E90001F8E1E8EBE01645E7F4FC8010E945E05CC
:101EA00080E291E0988B8F87EA89FB89309759F01F
:101EB000828193819D8B8C8B00811181CF010E9447
:101EC0001D13F801F3CF4A8D5B8D6E897F898CEDF0
:101ED00092E00E94BA00C6010E94590360E084E0CB
:101EE0000E94D10B8CED92E00E949801E091EE02ED
:101EF000F091EF0280818F7E8083E091EE02F0917D
:101F0000EF028081877F8083E091EE02F091EF0203
:101F100080818F778083E091EE02F091EF028081E3
:101F20008F7D80838091F6028093F5028091D102AB
:101F30009091D20201969093D2028093D10220E038
:101F400030E040E050E069E070E080ED92E00E9417
:101F5000850B0E94BA01A0CD8091810390918203EC
:101F6000E816F9060CF412CF61E080917D030E941F
:101F7000D10B60917F0370918003072E000C880BBA
:101F8000990B0E945F0260E080917D030E94D10B5B
:101F9000FDCE84EA93E00E9425098EED93E00C9437
:101FA0002509EF92FF920F931F93CF93DF93CDB745
:101FB000DEB7E9970FB6F894DEBF0FBECDBFECEDEC
:101FC000F2E01382128288EE93E0A0E0B0E0848316
:101FD0009583A683B7838EE691E09183808385EC19
:101FE00090E09587848784EC90E09787868780ECE3
:101FF00090E0918B808B81EC90E0938B828B82ECD4
:1020000090E0958B848B86EC90E0978B868B118E7D
:10201000128E138E148E809104019091050190937D
:102020003F0480933E04E8E3F4E088E993E0918381
:10203000808386E292E0938382838EE090E09583B2
:10204000848304E314E0F8011182108288EB9BE0A2
:102050009383828382E0E82E81E0F82E61E0F7012D
:1020600080810E94230260E0F70180810E94D10BF1
:102070008091020190910301F8019183808300E334
:1020800014E0F801118210821382128260E087E06E
:102090000E94230261E088E00E94230288E090E031
:1020A000F8019183808387E090E09383828306E147
:1020B00014E080E090E0A0EAB1E4F8018483958325
:1020C000A683B78381E090E09187808780E090E0ED
:1020D000A0E8B1E482879387A487B58780E090E089
:1020E000A0EDB0E486879787A08BB18B80E090E06D
:1020F000A0E4B1E4828B938BA48BB58B168A178AEC
:10210000108E118EAC01BD01C8010E944909F80171
:1021100060837183828393838DED93E00E94300806
:10212000EDEDF3E0818192819B838A8383819481A9
:102130009D838C83858196819F838E838781908503
:102140009987888766EE73E0CE010A960E945E0347
:102150006CEE73E0CE0140960E945E0362EF73E086
:10216000CE0146960E945E0368EF73E0CE014C9666
:102170000E945E036EEF73E0CE0182960E945E03C2
:1021800064E074E0CE0188960E945E036AE074E029
:10219000CE018E960E945E0360E174E0CE01C4968B
:1021A0000E945E0340E0BE016F5F7F4F83EA93E0D1
:1021B0000E94D008CE0102960E94250989E793E08B
:1021C0004091300450913104609132047091330495
:1021D000FC014083518362837383409134045091A6
:1021E00035046091360470913704448355836683C7
:1021F000778326E0E8E3F4E0A1E8B3E001900D92F4
:102200002A95E1F720913E0430913F04FC0131A76B
:1022100020A78AE1F801A7E8B3E001900D928A9522
:10222000E1F7E9960FB6F894DEBF0FBECDBFDF91A0
:10223000CF911F910F91FF90EF90089597FB072E7C
:1022400016F4009407D077FD09D00E945A1107FCBC
:1022500005D03EF4909581959F4F089570956195B6
:102260007F4F0895A1E21A2EAA1BBB1BFD010DC0D2
:10227000AA1FBB1FEE1FFF1FA217B307E407F50736
:1022800020F0A21BB30BE40BF50B661F771F881F12
:10229000991F1A9469F760957095809590959B01A8
:1022A000AC01BD01CF010895EE0FFF1F0590F49121
:1022B000E02D0994AA1BBB1B51E107C0AA1FBB1F3D
:1022C000A617B70710F0A61BB70B881F991F5A95C2
:1022D000A9F780959095BC01CD0108955058BB2772
:1022E000AA270E9486110C9487150E94791538F050
:1022F0000E94801520F039F49F3F19F426F40C94C5
:1023000076150EF4E095E7FB0C947015E92F0E940A
:10231000981558F3BA17620773078407950720F0DA
:1023200079F4A6F50C94BA150EF4E0950B2EBA2F9D
:10233000A02D0B01B90190010C01CA01A0011124CB
:10234000FF27591B99F0593F50F4503E68F11A1677
:10235000F040A22F232F342F4427585FF3CF469508
:1023600037952795A795F0405395C9F77EF41F162A
:10237000BA0B620B730B840BBAF09150A1F0FF0FF4
:10238000BB1F661F771F881FC2F70EC0BA0F621FE0
:10239000731F841F48F4879577956795B795F795D0
:1023A0009E3F08F0B0CF9395880F08F09927EE0F65
:1023B0009795879508950E94EF110C9487150E94B8
:1023C000801558F00E94791540F029F45F3F29F0FC
:1023D0000C94701551110C94BB150C9476150E9439
:1023E000981568F39923B1F3552391F3951B550B79
:1023F000BB27AA2762177307840738F09F5F5F4FD8
:10240000220F331F441FAA1FA9F335D00E2E3AF016
:10241000E0E832D091505040E695001CCAF72BD02E
:10242000FE2F29D0660F771F881FBB1F261737077F
:102430004807AB07B0E809F0BB0B802DBF01FF27B1
:1024400093585F4F3AF09E3F510578F00C94701509
:102450000C94BB155F3FE4F3983ED4F386957795D3
:102460006795B795F7959F5FC9F7880F911D96956A
:10247000879597F90895E1E0660F771F881FBB1FC6
:10248000621773078407BA0720F0621B730B840B73
:10249000BA0BEE1F88F7E09508950E9454126894D5
:1024A000B1110C94BB1508950E94A01588F09F5798
:1024B00098F0B92F9927B751B0F0E1F0660F771F68
:1024C000881F991F1AF0BA95C9F714C0B13091F05E
:1024D0000E94BA15B1E008950C94BA15672F782FB1
:1024E0008827B85F39F0B93FCCF386957795679523
:1024F000B395D9F73EF490958095709561957F4F8F
:102500008F4F9F4F08950E94DF1408F48FEF0895B6
:10251000CF93DF938230910510F482E090E0E09158
:102520004204F091430420E030E0C0E0D0E0309776
:1025300011F14081518148175907C0F048175907D8
:1025400061F482819381209719F09B838A832BC049
:10255000909343048093420426C02115310519F05D
:102560004217530718F49A01BE01DF01EF01028000
:10257000F381E02DDCCF2115310509F1281B390B42
:102580002430310590F412968D919C91139761152A
:10259000710521F0FB019383828304C0909343046F
:1025A00080934204FD01329644C0FD01E20FF31F07
:1025B00081939193225031092D933C933AC02091FD
:1025C000400430914104232B41F4209108013091C3
:1025D0000901309341042093400420910601309179
:1025E00007012115310541F42DB73EB740910A018D
:1025F00050910B01241B350BE0914004F0914104F4
:10260000E217F307A0F42E1B3F0B2817390778F0C9
:10261000AC014E5F5F4F2417350748F04E0F5F1F28
:1026200050934104409340048193919302C0E0E0B1
:10263000F0E0CF01DF91CF9108950F931F93CF93D7
:10264000DF93009709F48CC0FC0132971382128249
:1026500000914204109143040115110581F4208179
:102660003181820F931F209140043091410428173B
:10267000390779F5F0934104E093400471C0D80123
:1026800040E050E0AE17BF0750F412962D913C91F8
:102690001397AD012115310509F1D901F3CF9D0142
:1026A000DA013383228360817181860F971F82173D
:1026B000930769F4EC0128813981260F371F2E5FBB
:1026C0003F4F318320838A819B8193838283452B73
:1026D00029F4F0934304E093420442C01396FC9320
:1026E000EE931297ED01499159919E01240F351FE8
:1026F000E217F30771F480819181840F951F029690
:1027000011969C938E938281938113969C938E93C2
:102710001297E0E0F0E0D80112968D919C9113970A
:10272000009719F0F8018C01F6CF8D919C919801DA
:102730002E5F3F4F820F931F209140043091410440
:102740002817390769F4309729F41092430410923E
:10275000420402C013821282109341040093400489
:10276000DF91CF911F910F910895A0E0B0E0EBEBC6
:10277000F3E10C94C515EC01009721F4CB010E9404
:102780008812B8C0FC01E60FF71F9C0122503109E6
:10279000E217F30708F4ACC0D9010D911C91119711
:1027A00006171707B0F00530110508F49FC0C801DF
:1027B00004978617970708F499C002501109061B61
:1027C000170B019311936D937C93CF010E941D13FE
:1027D0008DC05B01A01AB10A4C01800E911EA09120
:1027E0004204B091430440E050E0E12CF12C1097FA
:1027F00009F44AC0A815B905D1F56D907C901197E0
:10280000630182E0C80ED11CCA14DB0480F1A3016D
:102810004A195B096A0182E0C80ED11C1296BC906D
:1028200012971396AC91B5E0CB16D10440F0B2826A
:10283000A38351834083D9016D937C930AC00E5FBB
:102840001F4FC301800F911FF90191838083EB2DEE
:10285000FA2FE114F10431F0D7011396FC93EE93B3
:10286000129744C0F0934304E09342043FC08D911B
:102870009C9111974817590708F4AC017D011296F5
:102880000D90BC91A02DB3CF809140049091410454
:1028900088159905E1F446175707C8F48091060199
:1028A00090910701009741F48DB79EB740910A01BE
:1028B00050910B01841B950BE817F907C8F4F093AE
:1028C0004104E0934004F901718360830FC0CB01A0
:1028D0000E9488127C01009759F0A801BE010E9455
:1028E0008414CE010E941D13C70104C0CE0102C092
:1028F00080E090E0CDB7DEB7EEE00C94E11581E02A
:1029000090E0F8940C94F815FB01DC0102C00190F2
:102910000D9241505040D8F70895FB01DC018D9194
:10292000019080190110D9F3990B0895FB01DC0186
:1029300001900D920020E1F708950E94DF1408F441
:1029400081E00895E89409C097FB3EF49095809546
:10295000709561957F4F8F4F9F4F9923A9F0F92F65
:1029600096E9BB279395F695879577956795B795E3
:10297000F111F8CFFAF4BB0F11F460FF1BC06F5FC9
:102980007F4F8F4F9F4F16C0882311F096E911C0DB
:10299000772321F09EE8872F762F05C0662371F0FC
:1029A00096E8862F70E060E02AF09A95660F771F10
:1029B000881FDAF7880F9695879597F90895990FEC
:1029C0000008550FAA0BE0E8FEEF16161706E807F9
:1029D000F907C0F012161306E407F50798F0621B1A
:1029E000730B840B950B39F40A2661F0232B242BEF
:1029F000252B21F408950A2609F4A140A6958FEF0E
:102A0000811D811D08950E9416150C9487150E9442
:102A1000791538F00E94801520F0952311F00C9460
:102A200070150C94761511240C94BB150E94981502
:102A300070F3959FC1F3950F50E0551F629FF00111
:102A4000729FBB27F00DB11D639FAA27F00DB11D2A
:102A5000AA1F649F6627B00DA11D661F829F2227B3
:102A6000B00DA11D621F739FB00DA11D621F839F3A
:102A7000A00D611D221F749F3327A00D611D231F10
:102A8000849F600D211D822F762F6A2F11249F575E
:102A900050409AF0F1F088234AF0EE0FFF1FBB1F61
:102AA000661F771F881F91505040A9F79E3F510520
:102AB00080F00C9470150C94BB155F3FE4F3983EC6
:102AC000D4F3869577956795B795F795E7959F5FCA
:102AD000C1F7FE2B880F911D9695879597F908955C
:102AE00097F99F6780E870E060E008959FEF80ECC1
:102AF000089500240A941616170618060906089564
:102B000000240A9412161306140605060895092EC9
:102B10000394000C11F4882352F0BB0F40F4BF2B38
:102B200011F460FF04C06F5F7F4F8F4F9F4F089578
:102B300057FD9058440F551F59F05F3F71F047956E
:102B4000880F97FB991F61F09F3F79F08795089553
:102B5000121613061406551FF2CF4695F1DF08C072
:102B6000161617061806991FF1CF8695710561058F
:102B700008940895E894BB2766277727CB0197F937
:102B800008952F923F924F925F926F927F928F9211
:102B90009F92AF92BF92CF92DF92EF92FF920F93EC
:102BA0001F93CF93DF93CDB7DEB7CA1BDB0B0FB6F6
:102BB000F894DEBF0FBECDBF09942A8839884888B3
:102BC0005F846E847D848C849B84AA84B984C88449
:102BD000DF80EE80FD800C811B81AA81B981CE0F40
:102BE000D11D0FB6F894DEBF0FBECDBFED01089525
:102BF00010E0CAE6D0E004C0FE010E945411219604
:0A2C0000CB36D107C9F7F894FFCFD7
:102C0A0010010600050000004404800000000000D6
:102C1A00930A8509350B7D0A010C160A000000008B
:102C2A00D8010000803FCDCCCC3D6F12833A95BFCE
:102C3A00D6337D1D9026B3CE010CCDCCCC3D0AD720
:102C4A00233C17B7D13877CC2B329595E6241FB1A0
:102C5A004F0A000020410000C84200401C4620BC28
:102C6A00BE4CCA1B0E5AAEC59D740000000051012D
:102C7A00BA00E90098011A01F8000C0108000700DF
:102C8A000E0043002500736F696C4D6F697374758C
:102C9A0072650077617465724C6576656C00776160
:102CAA007465724C6576656C556E69740068756DED
:102CBA0069646974790074656D706572617475729E
:102CCA00650074656D7065726174757265556E69BB
:102CDA00740064687431314572726F72436F64654F
:102CEA000022225C5C6208660C6E0A720D7409008E
:102CFA006E756C6C00747275650066616C73650044
:102D0A004E614E00652D00496E66696E69747900E0
:102D1A00687474703A2F2F3139322E3136382E3189
:102D2A002E3130332F737A696C61686F6D652F733A
:102D3A00656E736F7200736D74702E676D61696C66
:102D4A002E636F6D0061326C7A63327868597A67E4
:102D5A00345147647459576C734C6D4E7662513DC9
:102D6A003D004E5445784D7A45784D563944623285
:102D7A00357A006B6973736C61633139383840682E
:102D8A006F746D61696C2E636F6D006B6973736C20
:102D9A006163383840676D61696C2E636F6D0057E7
:102DAA00617465722074616E6B20656D707479212F
:102DBA0000526566696C6C20776174657220746173
:042DCA006E6B21000B
:00000001FF
